:020000040000FA
:100000000C9461000C947E000C947E000C947E0095
:100010000C947E000C947E000C947E000C947E0068
:100020000C947E000C947E000C947E000C947E0058
:100030000C947E000C947E000C947E000C947E0048
:100040000C941B020C947E000C947E000C947E0099
:100050000C947E000C947E000C947E000C947E0028
:100060000C947E000C947E00000000002400270009
:100070002A0000000000250028002B0000000000DE
:1000800023002600290004040404040404040202DA
:100090000202020203030303030301020408102007
:1000A0004080010204081020010204081020000012
:1000B0000008000201000003040700000000000027
:1000C000000011241FBECFEFD8E0DEBFCDBF11E08E
:1000D000A0E0B1E0ECE5F9E002C005900D92A63198
:1000E000B107D9F721E0A6E1B1E001C01D92A3322A
:1000F000B207E1F70E9465020C94AC040C94000076
:10010000833081F028F4813099F08230A9F008958D
:100110008730A9F08830C9F08430B1F48091800034
:100120008F7D03C0809180008F7780938000089539
:1001300084B58F7784BD089584B58F7DFBCF809182
:10014000B0008F778093B00008958091B0008F7DCC
:10015000F9CFCF93DF93282F30E0F901E255FF4F1D
:100160008491F901E656FF4FD491F901EA57FF4F08
:10017000C491CC23A1F081110E948000EC2FF0E00B
:10018000EE0FFF1FE458FF4FA591B491EC91ED23C2
:1001900081E090E009F480E0DF91CF91089580E064
:1001A00090E0FACF1F93CF93DF93282F30E0F9012F
:1001B000E255FF4F8491F901E656FF4FD491F901C2
:1001C000EA57FF4FC491CC23A9F0162F81110E944A
:1001D0008000EC2FF0E0EE0FFF1FEE58FF4FA591CF
:1001E000B4918FB7F894EC91111108C0D095DE232B
:1001F000DC938FBFDF91CF911F910895DE2BF8CF55
:10020000CF93DF9390E0FC01E656FF4F24918A578D
:100210009F4FFC0184918823D1F090E0880F991FB3
:10022000FC01E859FF4FA591B491FC01EE58FF4F36
:10023000C591D491623071F49FB7F8943C91822FAC
:10024000809583238C93E8812E2B28839FBFDF9199
:10025000CF9108958FB7F894EC912E2B2C938FBFEC
:10026000F6CF3FB7F89480911F0190912001A091A3
:100270002101B091220126B5A89B05C02F3F19F09E
:100280000196A11DB11D3FBFBA2FA92F982F882716
:10029000BC01CD01620F711D811D911D42E0660FF1
:1002A000771F881F991F4A95D1F708958F929F92C3
:1002B000AF92BF92CF92DF92EF92FF920E943101F4
:1002C0004B015C0188ECC82ED12CE12CF12C0E9452
:1002D0003101681979098A099B09683E73408105D3
:1002E0009105A8F321E0C21AD108E108F10888EECF
:1002F000880E83E0981EA11CB11CC114D104E10436
:10030000F10429F7FF90EF90DF90CF90BF90AF906E
:100310009F908F900895EF92FF920F931F93CF932A
:10032000DF937C0106E011E0D0E0C0E0F8018081BD
:100330000E5F1F4FB7010C2E02C0759567950A948A
:10034000E2F7617077270E94D2002196C430D10570
:1003500069F7DF91CF911F910F91FF90EF90089572
:100360000F931F93CF93DF938C01C0911801D0910D
:100370001901FE01EE0FFF1FE25FFE4F60E080817A
:100380000E94D200CE01800F911F8430910514F09D
:1003900083E090E097FF02C090E080E09093190125
:1003A00080931801880F991FFC01E25FFE4F61E006
:1003B0008081DF91CF911F910F910C94D200CF9249
:1003C000DF92EF92FF92CF93DF93E0911601F091CD
:1003D0001701EE0FFF1FE25FFE4F60E080810E9479
:1003E000D200D0E0C0E024E0C22ED12CE12CF12CD0
:1003F00080911601909117018C179D0741F40E947E
:10040000F103A70196010E944904EB01F1CFFE011F
:10041000EE0FFF1FE25FFE4F61E080810E94D2007D
:10042000D0931701C0931601DF91CF91FF90EF9009
:10043000DF90CF9008951F920F920FB60F92112464
:100440002F933F938F939F93AF93BF9380911B0103
:1004500090911C01A0911D01B0911E0130911A01D3
:1004600023E0230F2D3758F50196A11DB11D2093D0
:100470001A0180931B0190931C01A0931D01B0935E
:100480001E0180911F0190912001A0912101B09146
:1004900022010196A11DB11D80931F01909320019F
:1004A000A0932101B0932201BF91AF919F918F91B1
:1004B0003F912F910F900FBE0F901F90189526E837
:1004C000230F0296A11DB11DD2CF789484B582600E
:1004D00084BD84B5816084BD85B5826085BD85B5E8
:1004E000816085BD80916E00816080936E00109266
:1004F00081008091810082608093810080918100E1
:100500008160809381008091800081608093800071
:100510008091B10084608093B1008091B0008160CF
:100520008093B00080917A00846080937A008091FB
:100530007A00826080937A0080917A008160809353
:100540007A0080917A00806880937A001092C100CE
:1005500061E082E00E94000161E084E00E9400010D
:1005600061E087E00E94000161E088E00E940001F4
:1005700061E082E00E94D2001092190110921801ED
:10058000109217011092160162E08CE00E940001A7
:1005900062E08DE00E94000162E081E00E940001C3
:1005A00061E08EE00E94000161E08FE00E940001A6
:1005B00061E080E10E94000161E081E10E940001B0
:1005C00081E090E00E948B01C0E0D0E001E010E00B
:1005D00081E00E94A900892BA1F5809100019091F2
:1005E00001010196843091050CF061C090930101E6
:1005F0008093000180910001909101018A30910562
:1006000010F40E948B0160E082E00E94D20060E062
:1006100084E00E94D20060E087E00E94D20060E0A7
:1006200088E00E94D20061E082E00E94D200109235
:1006300019011092180110921701109216010E94D0
:1006400056018CE00E94A900892B99F48091000149
:10065000909101018230910579F18330910509F47F
:1006600047C0019721F481E090E00E94B0010E9410
:1006700056018DE00E94A900892B99F48091000118
:100680009091010182309105B1F18330910509F417
:1006900059C0019721F48FEF9FEF0E94B0010E9493
:1006A0005601209709F494CF0E94000091CF109337
:1006B0000101009300019ECF8091180190911901D2
:1006C00001968430910514F083E090E097FF02C01A
:1006D00090E080E09093190180931801880F991F92
:1006E000FC01E25FFE4F61E080810E94D200BFCF3B
:1006F0000E94DF01BCCFE0901801F0901901F7FED5
:1007000005C01092190110921801C9CF84E0E816B3
:10071000F104A4F4E114F10411F2F701EE0FFF1F4C
:10072000E25FFE4F60E080810E94D20081E0E81A23
:10073000F108F0921901E0921801B1CF93E0E92E8F
:10074000F12CEBCF0E94DF01AACF8F929F92AF9244
:10075000BF92CF92DF92EF92FF92CF93DF93EC01A3
:10076000688179818A819B81611571058105910577
:1007700021F464E279ED8BE597E02DE133EF41E080
:1007800050E00E94490449015A019B01AC01A7EACB
:10079000B1E40E9468046B017C01ACEEB4EFA501EA
:1007A00094010E947604C60ED71EE81EF91EF7FEBD
:1007B00006C081E0C81AD108E10880E8F80AC882BA
:1007C000D982EA82FB82C701B6019F77DF91CF9180
:1007D000FF90EF90DF90CF90BF90AF909F908F9061
:1007E00008958F929F92AF92BF92CF92DF92EF9235
:1007F000FF92609102017091030180910401909138
:100800000501611571058105910521F464E279ED19
:100810008BE597E02DE133EF41E050E00E94490481
:1008200049015A019B01AC01A7EAB1E40E946804A6
:100830006B017C01ACEEB4EFA50194010E9476043B
:10084000C60ED71EE81EF91EF7FE06C081E0C81AC4
:10085000D108E10880E8F80AC0920201D0920301B1
:10086000E0920401F0920501C701B6019F77FF9065
:10087000EF90DF90CF90BF90AF909F908F900895B2
:10088000609302017093030180930401909305012A
:100890000895052E97FB1EF400940E94600457FDF6
:1008A00007D00E947B0407FC03D04EF40C94600434
:1008B00050954095309521953F4F4F4F5F4F08958C
:1008C00090958095709561957F4F8F4F9F4F0895BC
:1008D0000E949D04A59F900DB49F900DA49F800D34
:1008E000911D11240895B7FF0C9468040E946804B8
:1008F000821B930B0895A1E21A2EAA1BBB1BFD01BC
:100900000DC0AA1FBB1FEE1FFF1FA217B307E407EE
:10091000F50720F0A21BB30BE40BF50B661F771F46
:10092000881F991F1A9469F7609570958095909526
:100930009B01AC01BD01CF010895A29FB001B39FFF
:10094000C001A39F700D811D1124911DB29F700DD8
:10095000811D1124911D0895F894FFCF010001001D
:1009600000000E000F00100011000200040007003C
:0209700008007D
:107E0000112484B714BE81FFF0D085E080938100F7
:107E100082E08093C00088E18093C10086E0809377
:107E2000C20080E18093C4008EE0C9D0259A86E02C
:107E300020E33CEF91E0309385002093840096BBD3
:107E4000B09BFECF1D9AA8958150A9F7CC24DD24C4
:107E500088248394B5E0AB2EA1E19A2EF3E0BF2EE7
:107E6000A2D0813461F49FD0082FAFD0023811F036
:107E7000013811F484E001C083E08DD089C08234E0
:107E800011F484E103C0853419F485E0A6D080C0E4
:107E9000853579F488D0E82EFF2485D0082F10E0AE
:107EA000102F00270E291F29000F111F8ED06801E7
:107EB0006FC0863521F484E090D080E0DECF843638
:107EC00009F040C070D06FD0082F6DD080E0C81688
:107ED00080E7D80618F4F601B7BEE895C0E0D1E017
:107EE00062D089930C17E1F7F0E0CF16F0E7DF06D8
:107EF00018F0F601B7BEE89568D007B600FCFDCFD4
:107F0000A601A0E0B1E02C9130E011968C91119780
:107F100090E0982F8827822B932B1296FA010C0160
:107F200087BEE89511244E5F5F4FF1E0A038BF0790
:107F300051F7F601A7BEE89507B600FCFDCF97BE46
:107F4000E89526C08437B1F42ED02DD0F82E2BD052
:107F50003CD0F601EF2C8F010F5F1F4F84911BD097
:107F6000EA94F801C1F70894C11CD11CFA94CF0C13
:107F7000D11C0EC0853739F428D08EE10CD085E9AC
:107F80000AD08FE07ACF813511F488E018D01DD067
:107F900080E101D065CF982F8091C00085FFFCCF94
:107FA0009093C60008958091C00087FFFCCF809118
:107FB000C00084FD01C0A8958091C6000895E0E648
:107FC000F0E098E1908380830895EDDF803219F02E
:107FD00088E0F5DFFFCF84E1DECF1F93182FE3DFCA
:107FE0001150E9F7F2DF1F91089580E0E8DFEE27F6
:047FF000FF270994CA
:027FFE00040479
:00000001FF
